:100000000C942A000C9434000C9434000C943400AA
:100010000C9434000C9434000C9434000C94340090
:100020000C9434000C9434000C9434000C94340080
:100030000C9434000C9434000C9434000C94340070
:100040000C9434000C9434000C9434000C94340060
:100050000C94340011241FBECFE5D4E0DEBFCDBF29
:100060000E9483000C9424010C9400009C01207FCA
:1000700033272C5F28BBE9EFF0E03197F1F700C0A0
:10008000000098B3945098BB8295807F8C5F88BBAA
:1000900089EF90E00197F1F700C0000088B3845029
:1000A00088BB089582E090E00E94360088E290E0EC
:1000B0000E9436008CE090E00E94360086E090E0DE
:1000C0000E94360008959C01207F33272B5F28BBB8
:1000D000E9EFF0E03197F1F700C0000028B32450B9
:1000E00028BB82959295907F9827807F98278B5F79
:1000F00088BB89EF90E00197F1F700C0000088B35A
:10010000845088BB08958FEF87BB0E94520080E81F
:1001100090E00E94360081E490E00E94630082E457
:1001200090E00E94630083E490E00E94630084E416
:1001300090E00E9463002FE38DE093E02150804027
:100140009040E1F700C0000081E090E00E9436009E
:1001500089EF90E00197F1F700C0000084E890E09B
:100160000E94360081E490E00E94630082E490E007
:100170000E94630083E490E00E94630084E490E0C6
:100180000E9463009FE32DE083E091502040804077
:10019000E1F700C0000081E090E00E94360089EFA6
:1001A00090E00197F1F700C000008CEC90E00E9415
:1001B000360081E490E00E94630082E490E00E94B7
:1001C000630083E490E00E94630084E490E00E9476
:1001D00063009FE32DE083E0915020408040E1F7F1
:1001E00000C0000081E090E00E94360089EF90E0BE
:1001F0000197F1F700C0000080EC90E00E9436000B
:1002000081E490E00E94630082E490E00E94630039
:1002100083E490E00E94630084E490E00E94630025
:100220009FE32DE083E0915020408040E1F700C043
:10023000000081E090E00E94360089EF90E0019795
:0C024000F1F700C0000063CFF894FFCF7E
:00000001FF
