:100000000C942A000C943F000C943F000C943F0089
:100010000C943F000C943F000C943F000C943F0064
:100020000C943F000C943F000C943F000C943F0054
:100030000C943F000C943F000C943F000C943F0044
:100040000C943F000C943F000C943F000C943F0034
:100050000C943F0011241FBECFE5D4E0DEBFCDBF1E
:1000600010E0A0E6B0E0E8EDF1E002C005900D92EE
:10007000A636B107D9F70E949E000C94EA000C94B2
:1000800000009C01207F33272C5F28BBE9EFF0E0C4
:100090003197F1F700C0000098B3945098BB829557
:1000A000807F8C5F88BB89EF90E00197F1F700C0FB
:1000B000000088B3845088BB089582E090E00E94DD
:1000C000410088E290E00E9441008CE090E00E94B4
:1000D000410086E090E00E94410008959C01207F4D
:1000E00033272B5F28BBE9EFF0E03197F1F700C031
:1000F000000028B3245028BB82959295907F9827C2
:10010000807F98278B5F88BB89EF90E00197F1F79C
:1001100000C0000088B3845088BB0895CF93DF935C
:10012000EC018881882339F0219690E00E946E00CE
:1001300089918111FACFDF91CF9108958FEF87BB1D
:100140000E945D00C0E8D0E00FEC10E06894EE245F
:10015000E7F8F12C1BC0CE010E94410080E690E040
:100160000E948E002FE38DE093E02150804090406C
:10017000E1F700C0000081E090E00E94410083ECC4
:1001800099E00197F1F700C000002196C039D10530
:1001900014F3E801CE010E94410080E690E00E9445
:1001A0008E009FE32DE083E0915020408040E1F7F6
:1001B00000C0000081E090E00E94410083EC99E0E3
:1001C0000197F1F700C000002197CF3BD10511F74F
:0801D000E701DCCFF894FFCF3A
:0601D80041424344000017
:00000001FF
